{
 "cells": [
  {
   "cell_type": "markdown",
   "metadata": {},
   "source": [
    "### Bob hat einen Freund Namens Charlie. Bob möchte das die Coins welche er von Alice geschickt bekommt NUR ausgegeben werden können wenn Bob und Charlie die Transaktion mit ihren jeweils eigenen privaten Schlüsseln signieren. Alice muss daher die Coins nicht an den öffentlichen Schlüssel von Bob schicken sondern an ein Skript welches die beiden öffentlichen Schlüssel von Bob und Charlie enthält. Diese Art der Transaktion haben wir bereits als **P2MS** oder **Bare Multisig** kennengelernt. P2MS hat jedoch zwei entscheidenden Nachteile.\n",
    "    1. Je mehr mögliche öffentliche Schlüssel für MultiSig genutzt werden desto länger wird der ScriptPubKey der Lockingtransaktion und damit wird auch die Transaktion selbst immer größere und teurer.\n",
    "    2. Die Kosten für die extrem große Lockingtransaktion muss der Sender bezahlen. Das ist aber ökonomisch unfair. Wieso soll der Sender den Preis dafür zahlen, dass der Empfänger einen aufwendigeren Mechanismus zur Ausgabe der Coins bekommt.\n",
    "Die Lösung beider Probleme besteht darin die Coins an den Hash eines Skripts zu schicken. Der Hash ist immer gleich lang. Daher ändert sich für den Sender nicht die Transaktionsgröße je mehr öffentliche SChlüssel dazu kommen. Das Skript und damit auch die größere Datenmenge wird erst beim Verwenden der Coins veröffentlicht und muss daher vom Eigentümer der MultiSig-Transaktion bezahlt werden.\n",
    "Diese Art der Transaktion wird als **P2SH** bezeichnet. "
   ]
  },
  {
   "cell_type": "markdown",
   "metadata": {},
   "source": [
    "### Aufgrund der Tatsache, dass wir mit einer \"leeren\" Blockchain beginnen, müssen zunächst ein paar Vorarbeiten geleistet werden.\n",
    "    1. Verbindung zur Blockchain in regtest Modus aufbauen\n",
    "    2. Anlegen dreier Nodes und Wallets (Alice, Bob und Charlie)\n",
    "    3. Mining 101 Blöcke damit Alice Wallet Coins enthält\n",
    "    4. Funding der Transaktion welche später als Input für die P2PK-Locking Transaktion genutzt wird.\n",
    "    5. Bob erzeugt seinen öffentlichen Schlüssel an den die Funds gebunden werden sollen\n",
    "    6. Charlie erzeugt seinen öffentlichen Schlüssel an den die Funds gebunden werden sollen"
   ]
  },
  {
   "cell_type": "code",
   "execution_count": 1,
   "metadata": {},
   "outputs": [],
   "source": [
    "import sys\n",
    "sys.path.insert(0, \"/media/henning/Volume/Programming/Bitcoin/bitcoin/test/functional\")\n",
    "from test_framework.test_shell import TestShell\n",
    "from io import BytesIO\n",
    "from decimal import Decimal\n",
    "\n",
    "from src.transaction import CTx, CTxIn, CTxOut\n",
    "from src.script import Script, p2ms_script, p2sh_script, p2pk_script\n",
    "from src.ecdsa import PrivateKey\n",
    "from src.crypto import hash160"
   ]
  },
  {
   "cell_type": "code",
   "execution_count": 2,
   "metadata": {},
   "outputs": [
    {
     "name": "stdout",
     "output_type": "stream",
     "text": [
      "2024-03-02T18:15:29.233000Z TestFramework (INFO): PRNG seed is: 9183553288609024746\n",
      "2024-03-02T18:15:29.233000Z TestFramework (INFO): Initializing test directory /tmp/bitcoin_func_test_2origa05\n"
     ]
    }
   ],
   "source": [
    "test = TestShell().setup(num_nodes=3, setup_clean_chain=True)\n",
    "alice = test.nodes[0]\n",
    "bob = test.nodes[1]\n",
    "charlie = test.nodes[2]\n",
    "\n",
    "alice.createwallet(\"alice\", descriptors=False)\n",
    "bob.createwallet(\"bob\", descriptors=False)\n",
    "charlie.createwallet(\"charlie\", descriptors=False)\n",
    "\n",
    "alice_address_0 = alice.getnewaddress(\"\", \"legacy\")\n",
    "test.generatetoaddress(alice, 101, alice_address_0)\n",
    "\n",
    "alice_address_1 = alice.getnewaddress(\"\", \"legacy\")\n",
    "alice_p2sh_funding_tx = alice.sendtoaddress(alice_address_1, 0.00011)\n",
    "alice_p2sh_funding_tx_parsed = alice.decoderawtransaction(alice.gettransaction(alice_p2sh_funding_tx)[\"hex\"])\n",
    "test.generatetoaddress(alice, 1, alice_address_0)\n",
    "\n",
    "bob_address_1 = bob.getnewaddress(\"\", \"legacy\")\n",
    "bob_private_key_wif_format = bob.dumpprivkey(bob_address_1)\n",
    "bob_private_key = PrivateKey.convert_wif_format(bob_private_key_wif_format)\n",
    "bob_private_key_int_format = bob_private_key.get_private_key_int()\n",
    "bob_public_key = bob_private_key.get_public_key()\n",
    "\n",
    "charlie_address_1 = charlie.getnewaddress(\"\", \"legacy\")\n",
    "charlie_private_key_wif_format = charlie.dumpprivkey(charlie_address_1)\n",
    "charlie_private_key = PrivateKey.convert_wif_format(charlie_private_key_wif_format)\n",
    "charlie_private_key_int_format = charlie_private_key.get_private_key_int()\n",
    "charlie_public_key = charlie_private_key.get_public_key()"
   ]
  },
  {
   "cell_type": "markdown",
   "metadata": {},
   "source": [
    "**1.** Zunächst müssen Bob und Charlie das von ihnen gewünschte Script erzeugen."
   ]
  },
  {
   "cell_type": "code",
   "execution_count": 3,
   "metadata": {},
   "outputs": [
    {
     "name": "stdout",
     "output_type": "stream",
     "text": [
      "90fa801017fdb71c5d2b1a3970d9187b3915b6b2\n"
     ]
    }
   ],
   "source": [
    "bob_and_charlie_skript = p2ms_script([bob_public_key.sec_format(), charlie_public_key.sec_format()], 2, 2)\n",
    "bob_and_charlie_skript_hash160 = hash160(bytes.fromhex(bob_and_charlie_skript.serialize_script().hex()[2:]))\n",
    "print(bob_and_charlie_skript_hash160.hex())"
   ]
  },
  {
   "cell_type": "markdown",
   "metadata": {},
   "source": [
    "**1.1** In der ersten Transaktion werden von Alice die 10000 Satoshis an das P2SH Script von Bob und Charlie versendet. Um das notwendige Transaktionsformular ausfüllen zu können, benötigt Alice folgende Informationen. "
   ]
  },
  {
   "cell_type": "code",
   "execution_count": 4,
   "metadata": {},
   "outputs": [],
   "source": [
    "alice_private_key_wif_format = alice.dumpprivkey(alice_address_1)\n",
    "alice_private_key = PrivateKey.convert_wif_format(alice_private_key_wif_format)\n",
    "alice_private_key_int_format = alice_private_key.get_private_key_int()\n",
    "alice_public_key = alice_private_key.get_public_key()\n",
    "\n",
    "alice_previous_tx_id_to_spent = alice_p2sh_funding_tx_parsed[\"txid\"]\n",
    "\n",
    "for tx_out in alice_p2sh_funding_tx_parsed[\"vout\"]:\n",
    "    if tx_out[\"value\"] == Decimal(\"0.00011000\"):\n",
    "        alice_previous_tx_index_to_spent = tx_out[\"n\"]\n",
    "        alice_previous_script_pub_key_to_spent = tx_out[\"scriptPubKey\"][\"hex\"]\n",
    "\n",
    "#Transaktionsoutputdaten\n",
    "alice_amount_to_spent = 10000"
   ]
  },
  {
   "cell_type": "markdown",
   "metadata": {},
   "source": [
    "**1.2** Nun kann Alice die Lockingtransaktion erzeugen. Um die Satoshis an Bob's öffentlichen Schlüssel zu senden, muss Alice im Output der Transaktion ein scriptPubKey der Form: <Bob's public Key> + OP_CHECKSIG generieren."
   ]
  },
  {
   "cell_type": "code",
   "execution_count": 5,
   "metadata": {},
   "outputs": [
    {
     "name": "stdout",
     "output_type": "stream",
     "text": [
      "Alice unsignierte P2SH Lockingtransaktion: 010000000180d20e93e54db4e0f00f227a3c14725f71b07dab4f15adc3baff9e952916e9500100000000ffffffff01102700000000000017a91490fa801017fdb71c5d2b1a3970d9187b3915b6b287ffffffff\n"
     ]
    }
   ],
   "source": [
    "transaction_input = CTxIn(bytes.fromhex(alice_previous_tx_id_to_spent), alice_previous_tx_index_to_spent, script_sig=Script())\n",
    "\n",
    "alice_script_pubkey = p2sh_script(bob_and_charlie_skript_hash160)\n",
    "transaction_output = CTxOut(alice_amount_to_spent, alice_script_pubkey)\n",
    "\n",
    "alice_locking_transaction = CTx(1, [transaction_input], [transaction_output], 0xffffffff, is_testnet=True, is_segwit=False)\n",
    "\n",
    "print(f\"Alice unsignierte P2SH Lockingtransaktion: {alice_locking_transaction.serialize_transaction().hex()}\")"
   ]
  },
  {
   "cell_type": "markdown",
   "metadata": {},
   "source": [
    "**1.3** Nun muss Alice die Lockingtransaktion noch signieren. D.h. sie muss nachweisen, dass sie aus der vorhergehenden Transaktion berechtigt ist die 10000 Satoshis auszugeben."
   ]
  },
  {
   "cell_type": "code",
   "execution_count": 6,
   "metadata": {},
   "outputs": [
    {
     "name": "stdout",
     "output_type": "stream",
     "text": [
      "Alice signierte P2SH Lockingtransaktion: 010000000180d20e93e54db4e0f00f227a3c14725f71b07dab4f15adc3baff9e952916e950010000006a47304402207a0313b7436b95759e377226c4688df86b7cfe6c4abed268db3928b53124d212022049ebc07a7a342d61ba6f28a66550efdb0bf37a8c4d363f459e11c92f2c6eca8e012103fe81c1d39ffbf3d348cb95262512f367096576a7cdbd2597ff3ec028dc4d93e4ffffffff01102700000000000017a91490fa801017fdb71c5d2b1a3970d9187b3915b6b287ffffffff\n",
      "1c9b7b2019b873707a50946b223ad53d1d25d6cc8abaae1269aa8788a7c1090a\n"
     ]
    }
   ],
   "source": [
    "alice_script_sig = Script().parse_script(BytesIO(bytes.fromhex(f\"{hex(len(alice_previous_script_pub_key_to_spent)//2)[2:]}{alice_previous_script_pub_key_to_spent}\")))\n",
    "alice_locking_transaction.sign_transaction(0, [alice_private_key_int_format], alice_script_sig)\n",
    "\n",
    "print(f\"Alice signierte P2SH Lockingtransaktion: {alice_locking_transaction.serialize_transaction().hex()}\")\n",
    "\n",
    "alice_p2ms_locking_tx = alice.sendrawtransaction(alice_locking_transaction.serialize_transaction().hex())\n",
    "test.generatetoaddress(alice, 1, alice_address_0)\n",
    "\n",
    "print(alice_p2ms_locking_tx)"
   ]
  },
  {
   "cell_type": "markdown",
   "metadata": {},
   "source": [
    "**2.** Nun möchten Bob und Charlie die an den Hash ihres Scripts gebundenen Satoshis weiter versenden. Dazu müssen die beiden im Inputfeld (in dem auf den eben von Alice erzeugten Output referenziert wird), zum Beweis das sie berechtigt sind den Output auszugeben, ihre Signaturen sowie das von ihnen erzeugte Skript vorlegen. Die Reihenfolge in der die Signaturen vorliegen muss die selbe Reihenfolge sein in der die öffentlichen Schlüssel im Skript vorliegen. Damit Bob das notwendige Transaktionsformular ausfüllen kann benötigt er folgende Informationen."
   ]
  },
  {
   "cell_type": "code",
   "execution_count": 7,
   "metadata": {},
   "outputs": [],
   "source": [
    "alice_p2ms_locking_tx_parsed = alice.decoderawtransaction(alice.gettransaction(alice_p2ms_locking_tx)[\"hex\"])\n",
    "\n",
    "bob_previous_tx_id_to_spent = alice_p2ms_locking_tx_parsed[\"txid\"]\n",
    "\n",
    "for tx_out in alice_p2ms_locking_tx_parsed[\"vout\"]:\n",
    "    if tx_out[\"value\"] == Decimal(\"0.00010000\"):\n",
    "        bob_previous_tx_index_to_spent = tx_out[\"n\"]\n",
    "        bob_previous_script_pub_key_to_spent = tx_out[\"scriptPubKey\"][\"hex\"]\n",
    "\n",
    "#Transaktionsoutputdaten\n",
    "bob_amount_to_spent = 9000\n",
    "#bob's reciever address is alice public key"
   ]
  },
  {
   "cell_type": "markdown",
   "metadata": {},
   "source": [
    "**2.1** Nun kann Bob die Transaktion erstellen um die eben von Alice erhaltenen Satoshis weiter zu versenden."
   ]
  },
  {
   "cell_type": "code",
   "execution_count": 8,
   "metadata": {},
   "outputs": [
    {
     "name": "stdout",
     "output_type": "stream",
     "text": [
      "Bob unsignierte P2MS Spendingtransaktion: 01000000010a09c1a78887aa6912aeba8accd6251d3dd53a226b94507a7073b819207b9b1c0000000000ffffffff012823000000000000232103fe81c1d39ffbf3d348cb95262512f367096576a7cdbd2597ff3ec028dc4d93e4acffffffff\n"
     ]
    }
   ],
   "source": [
    "transaction_input = CTxIn(bytes.fromhex(bob_previous_tx_id_to_spent), bob_previous_tx_index_to_spent, script_sig=Script())\n",
    "\n",
    "script_pubkey = p2pk_script(alice_public_key.sec_format())\n",
    "transaction_output = CTxOut(bob_amount_to_spent, script_pubkey)\n",
    "\n",
    "bob_spending_transaction = CTx(1, [transaction_input], [transaction_output], 0xffffffff, is_testnet=True, is_segwit=False)\n",
    "\n",
    "print(f\"Bob unsignierte P2MS Spendingtransaktion: {bob_spending_transaction.serialize_transaction().hex()}\")"
   ]
  },
  {
   "cell_type": "markdown",
   "metadata": {},
   "source": [
    "**2.2** Nun können Bob und Charlie diese Transaktion mit ihren privaten Schlüssle signieren und versenden."
   ]
  },
  {
   "cell_type": "code",
   "execution_count": 9,
   "metadata": {},
   "outputs": [
    {
     "name": "stdout",
     "output_type": "stream",
     "text": [
      "47522102e60f2e87cee6d4fc47d5bb53431f385192710f86365844f814a4ab19b2c000e02102ac3eaf5ad2bafed4cda44c7119d99fca2c64caf80eca6e9c4382d969db2fe1ff52ae\n",
      "Bob signierte P2MS Spendingtransaktion: 01000000010a09c1a78887aa6912aeba8accd6251d3dd53a226b94507a7073b819207b9b1c000000006b483045022100e839f0c4b94ba69d2470c6574e3affe25079da99743378cce8b8a985e38d8b1902207005935ccd00e5543f32bcaa28841fe2ea5f1f41d7514b6949ed668d10a2c556012102ac3eaf5ad2bafed4cda44c7119d99fca2c64caf80eca6e9c4382d969db2fe1ffffffffff012823000000000000232103fe81c1d39ffbf3d348cb95262512f367096576a7cdbd2597ff3ec028dc4d93e4acffffffff\n",
      "6b483045022100e839f0c4b94ba69d2470c6574e3affe25079da99743378cce8b8a985e38d8b1902207005935ccd00e5543f32bcaa28841fe2ea5f1f41d7514b6949ed668d10a2c556012102ac3eaf5ad2bafed4cda44c7119d99fca2c64caf80eca6e9c4382d969db2fe1ff\n"
     ]
    },
    {
     "ename": "JSONRPCException",
     "evalue": "bad-txns-nonstandard-inputs (-26)",
     "output_type": "error",
     "traceback": [
      "\u001b[0;31m---------------------------------------------------------------------------\u001b[0m",
      "\u001b[0;31mJSONRPCException\u001b[0m                          Traceback (most recent call last)",
      "\u001b[0;32m/tmp/ipykernel_87387/3491878889.py\u001b[0m in \u001b[0;36m<module>\u001b[0;34m\u001b[0m\n\u001b[1;32m      6\u001b[0m \u001b[0mprint\u001b[0m\u001b[0;34m(\u001b[0m\u001b[0mbob_spending_transaction\u001b[0m\u001b[0;34m.\u001b[0m\u001b[0mtx_ins\u001b[0m\u001b[0;34m[\u001b[0m\u001b[0;36m0\u001b[0m\u001b[0;34m]\u001b[0m\u001b[0;34m.\u001b[0m\u001b[0mscript_sig\u001b[0m\u001b[0;34m.\u001b[0m\u001b[0mserialize_script\u001b[0m\u001b[0;34m(\u001b[0m\u001b[0;34m)\u001b[0m\u001b[0;34m.\u001b[0m\u001b[0mhex\u001b[0m\u001b[0;34m(\u001b[0m\u001b[0;34m)\u001b[0m\u001b[0;34m)\u001b[0m\u001b[0;34m\u001b[0m\u001b[0;34m\u001b[0m\u001b[0m\n\u001b[1;32m      7\u001b[0m \u001b[0;34m\u001b[0m\u001b[0m\n\u001b[0;32m----> 8\u001b[0;31m \u001b[0mbob_p2ms_spending_tx\u001b[0m \u001b[0;34m=\u001b[0m \u001b[0mbob\u001b[0m\u001b[0;34m.\u001b[0m\u001b[0msendrawtransaction\u001b[0m\u001b[0;34m(\u001b[0m\u001b[0mbob_spending_transaction\u001b[0m\u001b[0;34m.\u001b[0m\u001b[0mserialize_transaction\u001b[0m\u001b[0;34m(\u001b[0m\u001b[0;34m)\u001b[0m\u001b[0;34m.\u001b[0m\u001b[0mhex\u001b[0m\u001b[0;34m(\u001b[0m\u001b[0;34m)\u001b[0m\u001b[0;34m)\u001b[0m\u001b[0;34m\u001b[0m\u001b[0;34m\u001b[0m\u001b[0m\n\u001b[0m\u001b[1;32m      9\u001b[0m \u001b[0;34m\u001b[0m\u001b[0m\n\u001b[1;32m     10\u001b[0m \u001b[0;31m#print(bob_p2ms_spending_tx)\u001b[0m\u001b[0;34m\u001b[0m\u001b[0;34m\u001b[0m\u001b[0m\n",
      "\u001b[0;32m/media/henning/Volume/Programming/Bitcoin/bitcoin/test/functional/test_framework/coverage.py\u001b[0m in \u001b[0;36m__call__\u001b[0;34m(self, *args, **kwargs)\u001b[0m\n\u001b[1;32m     48\u001b[0m \u001b[0;34m\u001b[0m\u001b[0m\n\u001b[1;32m     49\u001b[0m         \"\"\"\n\u001b[0;32m---> 50\u001b[0;31m         \u001b[0mreturn_val\u001b[0m \u001b[0;34m=\u001b[0m \u001b[0mself\u001b[0m\u001b[0;34m.\u001b[0m\u001b[0mauth_service_proxy_instance\u001b[0m\u001b[0;34m.\u001b[0m\u001b[0m__call__\u001b[0m\u001b[0;34m(\u001b[0m\u001b[0;34m*\u001b[0m\u001b[0margs\u001b[0m\u001b[0;34m,\u001b[0m \u001b[0;34m**\u001b[0m\u001b[0mkwargs\u001b[0m\u001b[0;34m)\u001b[0m\u001b[0;34m\u001b[0m\u001b[0;34m\u001b[0m\u001b[0m\n\u001b[0m\u001b[1;32m     51\u001b[0m         \u001b[0mself\u001b[0m\u001b[0;34m.\u001b[0m\u001b[0m_log_call\u001b[0m\u001b[0;34m(\u001b[0m\u001b[0;34m)\u001b[0m\u001b[0;34m\u001b[0m\u001b[0;34m\u001b[0m\u001b[0m\n\u001b[1;32m     52\u001b[0m         \u001b[0;32mreturn\u001b[0m \u001b[0mreturn_val\u001b[0m\u001b[0;34m\u001b[0m\u001b[0;34m\u001b[0m\u001b[0m\n",
      "\u001b[0;32m/media/henning/Volume/Programming/Bitcoin/bitcoin/test/functional/test_framework/authproxy.py\u001b[0m in \u001b[0;36m__call__\u001b[0;34m(self, *args, **argsn)\u001b[0m\n\u001b[1;32m    127\u001b[0m         \u001b[0mresponse\u001b[0m\u001b[0;34m,\u001b[0m \u001b[0mstatus\u001b[0m \u001b[0;34m=\u001b[0m \u001b[0mself\u001b[0m\u001b[0;34m.\u001b[0m\u001b[0m_request\u001b[0m\u001b[0;34m(\u001b[0m\u001b[0;34m'POST'\u001b[0m\u001b[0;34m,\u001b[0m \u001b[0mself\u001b[0m\u001b[0;34m.\u001b[0m\u001b[0m__url\u001b[0m\u001b[0;34m.\u001b[0m\u001b[0mpath\u001b[0m\u001b[0;34m,\u001b[0m \u001b[0mpostdata\u001b[0m\u001b[0;34m.\u001b[0m\u001b[0mencode\u001b[0m\u001b[0;34m(\u001b[0m\u001b[0;34m'utf-8'\u001b[0m\u001b[0;34m)\u001b[0m\u001b[0;34m)\u001b[0m\u001b[0;34m\u001b[0m\u001b[0;34m\u001b[0m\u001b[0m\n\u001b[1;32m    128\u001b[0m         \u001b[0;32mif\u001b[0m \u001b[0mresponse\u001b[0m\u001b[0;34m[\u001b[0m\u001b[0;34m'error'\u001b[0m\u001b[0;34m]\u001b[0m \u001b[0;32mis\u001b[0m \u001b[0;32mnot\u001b[0m \u001b[0;32mNone\u001b[0m\u001b[0;34m:\u001b[0m\u001b[0;34m\u001b[0m\u001b[0;34m\u001b[0m\u001b[0m\n\u001b[0;32m--> 129\u001b[0;31m             \u001b[0;32mraise\u001b[0m \u001b[0mJSONRPCException\u001b[0m\u001b[0;34m(\u001b[0m\u001b[0mresponse\u001b[0m\u001b[0;34m[\u001b[0m\u001b[0;34m'error'\u001b[0m\u001b[0;34m]\u001b[0m\u001b[0;34m,\u001b[0m \u001b[0mstatus\u001b[0m\u001b[0;34m)\u001b[0m\u001b[0;34m\u001b[0m\u001b[0;34m\u001b[0m\u001b[0m\n\u001b[0m\u001b[1;32m    130\u001b[0m         \u001b[0;32melif\u001b[0m \u001b[0;34m'result'\u001b[0m \u001b[0;32mnot\u001b[0m \u001b[0;32min\u001b[0m \u001b[0mresponse\u001b[0m\u001b[0;34m:\u001b[0m\u001b[0;34m\u001b[0m\u001b[0;34m\u001b[0m\u001b[0m\n\u001b[1;32m    131\u001b[0m             raise JSONRPCException({\n",
      "\u001b[0;31mJSONRPCException\u001b[0m: bad-txns-nonstandard-inputs (-26)"
     ]
    }
   ],
   "source": [
    "bob_script_sig = Script().parse_script(BytesIO(bytes.fromhex(f\"{hex(len(bob_previous_script_pub_key_to_spent)//2)[2:]}{bob_previous_script_pub_key_to_spent}\")))\n",
    "bob_spending_transaction.sign_transaction(0, [bob_private_key_int_format, charlie_private_key_int_format], bob_script_sig, 2, 2, bob_and_charlie_skript)\n",
    "print(bob_and_charlie_skript.serialize_script().hex())\n",
    "\n",
    "print(f\"Bob signierte P2MS Spendingtransaktion: {bob_spending_transaction.serialize_transaction().hex()}\")\n",
    "print(bob_spending_transaction.tx_ins[0].script_sig.serialize_script().hex())\n",
    "\n",
    "bob_p2ms_spending_tx = bob.sendrawtransaction(bob_spending_transaction.serialize_transaction().hex())\n",
    "\n",
    "#print(bob_p2ms_spending_tx)\n",
    "\n",
    "TestShell().shutdown()"
   ]
  },
  {
   "cell_type": "code",
   "execution_count": null,
   "metadata": {},
   "outputs": [
    {
     "name": "stdout",
     "output_type": "stream",
     "text": [
      "4752210215f5713990d39a82e1d9818b95de962f06f6920da419bfeb8a62e2202a903abd21030a321001ac285d2fa5540d052ce40e04562b87478d61305c13aafb6da1de3a1952ae\n",
      "296ca6e120969466cb59ca3997b3aadc4e28ca43\n"
     ]
    }
   ],
   "source": [
    "print(bob_and_charlie_skript.serialize_script().hex())\n",
    "print(bob_and_charlie_skript_hash160.hex())"
   ]
  },
  {
   "cell_type": "code",
   "execution_count": null,
   "metadata": {},
   "outputs": [],
   "source": []
  }
 ],
 "metadata": {
  "kernelspec": {
   "display_name": "Python 3",
   "language": "python",
   "name": "python3"
  },
  "language_info": {
   "codemirror_mode": {
    "name": "ipython",
    "version": 3
   },
   "file_extension": ".py",
   "mimetype": "text/x-python",
   "name": "python",
   "nbconvert_exporter": "python",
   "pygments_lexer": "ipython3",
   "version": "3.10.12"
  }
 },
 "nbformat": 4,
 "nbformat_minor": 2
}
